:020000040800F2
:10000000980A002099010008B90A0008930A00081C
:10001000B50A0008290500080D11000800000000BD
:10002000000000000000000000000000450C000877
:100030002D050008000000002D0B0008310D000800
:10004000B3010008B3010008B3010008B3010008C0
:10005000B3010008B3010008B3010008B3010008B0
:10006000B3010008B3010008B3010008B3010008A0
:10007000B3010008B3010008B3010008B301000890
:10008000B3010008B3010008B3010008B301000880
:10009000B3010008B3010008B3010008B301000870
:1000A000B3010008B3010008B3010008B301000860
:1000B000B3010008B3010008B3010008B301000850
:1000C000B3010008B3010008B3010008B301000840
:1000D000B3010008B3010008A10D0008B301000836
:1000E000B3010008B3010008B301000800F002F8F2
:1000F00000F042F80AA090E8000C82448344AAF180
:100100000107DA4501D100F037F8AFF2090EBAE87D
:100110000F0013F0010F18BFFB1A43F0010318473B
:10012000D4110000F4110000103A24BF78C878C13F
:10013000FAD8520724BF30C830C144BF04680C60ED
:10014000704700000023002400250026103A28BF35
:1001500078C1FBD8520728BF30C148BF0B60704739
:10016000642900F0B980732900F091810020704764
:100170001FB51FBD10B510BD00F0A4F91146FFF763
:10018000F7FF01F05AF800F0C2F903B4FFF7F2FFED
:1001900003BC00F0BDFF0000094880470948004744
:1001A000FEE7FEE7FEE7FEE7FEE7FEE7FEE7FEE727
:1001B000FEE7FEE704480549054A064B7047000084
:1001C000410D0008ED00000898040020980A002066
:1001D0009806002098060020704700000FB40449DC
:1001E00010B503AA029800F057F910BC5DF814FB93
:1001F000300000200FB41CB5074B06AA7B446946AB
:100200000090059800F019F90020694600F028F9DF
:100210001CBC5DF814FB0000610200002DE9F041F8
:100220000E460446002020622046E168884730B32D
:10023000252805D0D4E901219047206A401CF2E727
:10024000E168204600278847050018D0A5F1410045
:10025000192802D820354FF4006732462946204637
:100260002760FFF77DFF40B1012804D0F61D26F07E
:1002700007060836D8E7361DD6E72846DAE7206AAB
:10028000BDE8F08170B50C460546012A05D02878F6
:10029000800600D5EA69002302E0012305E05B1C2B
:1002A000934202D2E05C0028F9D1A869E618C01A8E
:1002B000A861286A184428622846AFF3008004E049
:1002C000D5E9012114F8010B9047B442F8D3284630
:1002D000AFF3008070BD00002DE9F0410646002418
:1002E00010687529314616A510D0AFF3008000289C
:1002F00002DA404213A507E031688A0701D512A54A
:1003000002E0490704D511A5012401E0AFF3008004
:1003100000210A2206F1240709E0B0FBF2FCB0FB41
:10032000F2F302FB1C00303078541846491C0028B8
:10033000F3D123462A463046BDE8F04100F01EB80E
:10034000000000002D0000002B0000002000000035
:1003500030B505460B462A4613F8014B12F8010B3F
:1003600008B1A042F8D01CB1002802D06D1CF1E702
:10037000284630BD70477047704770472DE9F047F9
:100380000D4699469246044600F124080168880605
:1003900004D5E06921F01001216000E00120A842AD
:1003A00001DD471B00E00027A1697A1902EB090073
:1003B000081AA0612078C00602D42046AFF300805E
:1003C000002608E0D4E901211AF806009047206AC7
:1003D000401C761C20624E45F4DB2078C0060AD50E
:1003E0002046AFF3008006E0D4E901213020904799
:1003F000206A401C2062381EA7F10107F4DC07E0E8
:10040000D4E9012118F805009047206A401C2062B9
:10041000281EA5F10105F3DC2046AFF3008020780B
:10042000000602D50220BDE8F0870120FBE70000AE
:1004300001694A1C02610878704700B58FB0CDE9A8
:1004400001310021059105497944CDE90310114698
:100450006846FFF7E3FE0FB000BD0000E5FFFFFFB9
:100460000A6802F8010B0A60704710B5436913B1BE
:10047000AFF3008001E0FFF705FF012010BD127807
:1004800000F124010A7000224A700122EDE7116890
:100490004FF0FF32E9E70000074B70B50D467B4493
:1004A000FFF7CBFF0446284600F008F810B14FF0E4
:1004B000FF3070BD204670BD030D0000007B00F0D2
:1004C00080007047754600F02BF8AE46050069467F
:1004D000534620F00700854618B020B5FFF76AFEA6
:1004E000BDE820404FF000064FF000074FF0000835
:1004F0004FF0000B21F00701AC46ACE8C009ACE8B6
:10050000C009ACE8C009ACE8C0098D46704710B519
:100510000446AFF300802046BDE81040FFF735BE2B
:10052000004870473804002000BFFEE77047000015
:1005300010B500244FF47A7000F00EFE0DE04FF479
:10054000FA73002207A108A000F0BEF918B109A0B3
:10055000FFF744FE10BD601CC4B20A2CEFDB00BFE5
:10056000F8E700004F4B000041542B524553544FC5
:10057000524500004F4B0D0A0000000010B5044624
:10058000204600F065FE10BD30B59FB004460D4614
:100590002B46224606A101A8FFF72CFE41F2883324
:1005A000002208A101A800F08FF91FB030BD0000A3
:1005B00041542B43574A41503D222573222C22257A
:1005C000732200004F4B000030B59FB004460D462B
:1005D0002B46224606A101A8FFF70CFE4FF4FA7342
:1005E000002209A101A800F06FF91FB030BD000082
:1005F00041542B4D515454434F4E4E3D302C2225E7
:1006000073222C25642C30004F4B000030B59FB076
:1006100004460D462B46224606A101A8FFF7EAFD37
:100620004FF47A7300220AA101A800F04DF91FB01F
:1006300030BD000041542B4D5154545055423D3073
:100640002C222573222C222573222C312C300000E1
:100650004F4B000010B59EB00446224606A16846E6
:10066000FFF7C8FD4FF4FA73002208A1684600F0B6
:100670002BF91EB010BD000041542B4D5154545362
:1006800055423D302C222573222C31004F4B000067
:1006900070B5A0B004460D4616462B46224607A16B
:1006A00002A80096FFF7A6FD4FF4FA7300220EA1F0
:1006B00002A800F009F920B070BD000041542B4D94
:1006C000515454555345524346473D302C312C220A
:1006D0002573222C222573222C222573222C302CC8
:1006E000302C2222000000004F4B000010B540F6D5
:1006F000C41303A205A106A000F0E6F810BD000097
:100700006E6F206368616E67650000004F4B0000EC
:1007100041542B43574D4F44453D3100ADF5806D5D
:100720002EA0FFF75BFDFFF703FFFFF7DFFF00BF22
:1007300030A133A0FFF728FF0028F9D034A236A15A
:1007400037A0FFF7A5FF40F25B7138A0FFF73CFF31
:100750003AA0FFF77FFF3CA0FFF740FD3DE030A14E
:100760006846FFF747FD69463BA000F094F94FF457
:100770007A7000F0F1FC3BA16846FFF73BFD69464B
:100780003DA000F088F940A14048FFF7E1FD0028B6
:1007900023D03E4C58253EA32A463EA16846FFF78B
:1007A00029FD694634A000F076F92046B0F800042F
:1007B000C0F30E0632463CA16846FFF71BFD6946B2
:1007C0002DA000F068F922463BA16846FFF712FD14
:1007D000694629A000F05FF900BFC0E7D5FDD4DA73
:1007E000C5E4D6C345535038323636B2CECAFD0DB5
:1007F0000A00000074706C696E6B3936303132005B
:1008000054502D4C494E4B5F3432344400000000AC
:100810007075626C6963000061646D696E00000050
:1008200061697468696E6B65720000003139322E3F
:100830003136382E31372E3235340000746F7069FE
:10084000635F7375620000000D0A4D515454C5E496
:10085000D6C3CDEAB3C90000746F7069635F736576
:100860006E640000746F7069635F726563656976BA
:10087000652D2D3100000000746F7069635F726533
:1008800063656976650000004F4B0000340000206E
:100890003131310072656365697665202D202564EC
:1008A000202D202573000000726563656976652040
:1008B0002D2D202564000000726563656976652032
:1008C0002D2D2025730000002DE9F04106460C4631
:1008D00015461F462548B0F800046FF30E00234963
:1008E000A1F80004324622A1234800F08CFB1CB979
:1008F00015B90120BDE8F081B8B200F02DFC4FF42D
:100900007A7000F029FC00201849B1F80014C1F3F6
:100910000E01164A5054B4B1ADB121461046FFF74E
:1009200017FD08B1012000E0002040B929460F481A
:10093000FFF70EFD08B1012000E0002008B1012002
:10094000D8E70020D6E744B121460848FFF700FD6C
:1009500008B10120CEE70020CCE729460348FFF785
:10096000F7FC08B10120C5E70020C3E734000020F0
:1009700025730D0A00000000004400402DE9F041FD
:10098000024600250026002000230024002791F8BD
:1009900003C00CF00F0591F803C00CF0100CBCF173
:1009A000000F03D091F802C04CEA050591F800C091
:1009B000BCF1000F31D0146800202BE04FF0010C87
:1009C0000CFA00F3B1F800C00CEA03069E4220D1F5
:1009D00083004FF00F0C0CFA03F7BC4305FA03FC3D
:1009E0004CEA040491F803C0BCF1280F06D14FF083
:1009F000010C0CFA00FCC2F814C00AE091F803C024
:100A0000BCF1480F05D14FF0010C0CFA00FCC2F804
:100A100010C0401C0828D1D31460B1F800C0BCF14C
:100A2000FF0F34DD546800202EE000F1080C4FF079
:100A3000010808FA0CF3B1F800C00CEA03069E4264
:100A400021D183004FF00F0C0CFA03F7BC4305FAD9
:100A500003FC4CEA040491F803C0BCF1280F05D153
:100A600000F1080C08FA0CF8C2F8148091F803C0E1
:100A7000BCF1480F07D100F1080C4FF0010808FA4B
:100A80000CF8C2F81080401C0828CED35460BDE892
:100A9000F08100BFFEE770B504460D4600262946EA
:100AA0002046FFF7B3FD4FF47A7000F055FB0126A6
:100AB000304670BD00BFFEE77047000070B50021F2
:100AC00000230F22C47804B3154C246804F4E064B6
:100AD000C4F5E064210AC1F10403CA40447804FA71
:100AE00003F184781440214309010E4C0678A15586
:100AF000047804F01F050124AC4005786D11AD00A9
:100B000005F1E025C5F8004109E0047804F01F056F
:100B10000124AC40044D0678761145F8264070BD9E
:100B20000CED00E000E400E080E100E07047000030
:100B300029B1064AD2690243044BDA6104E0034A50
:100B4000D2698243014BDA61704700000010024015
:100B500029B1064A92690243044B9A6104E0034AB0
:100B600092698243014B9A61704700000010024075
:100B700030B500210022002400232D4D6D6805F0C2
:100B80000C0121B1042905D0082923D105E0294D04
:100B9000056022E0274D05601FE0254D6D6805F4D6
:100BA0007012234D6D6805F48034022505EB9242E6
:100BB0001CB9214D554305600BE01D4D6D6805F4D2
:100BC00000351DB11C4D5543056002E0194D5543DC
:100BD000056002E0174D056000BF00BF144D6D6851
:100BE00005F0F0010909154D6B5C0568DD404560B5
:100BF0000F4D6D6805F4E061090A104D6B5C4568A6
:100C0000DD4085600A4D6D6805F46051C90A0B4DE1
:100C10006B5C4568DD40C560054D6D6805F440417D
:100C2000890B074D6B5CC568B5FBF3F5056130BDFD
:100C30000010024000127A0000093D001800002058
:100C400028000020704710B500F002F810BD000029
:100C50000CB50020019000903348006840F48030CB
:100C60003149086000BF3048006800F4003000904F
:100C70000198401C0190009818B90198B0F5A06F38
:100C8000F1D12948006800F4003010B10120009033
:100C900001E0002000900098012843D1234800681B
:100CA00040F01000214908600846006820F0030069
:100CB00008600846006840F0020008601A48406872
:100CC000194948600846406848600846406840F452
:100CD000806048600846406820F47C104860084600
:100CE000406840F4E81048600846006840F08070B2
:100CF000086000BF0C48006800F000700028F9D0C0
:100D00000948406820F003000749486008464068E9
:100D100040F00200486000BF0348406800F00C004B
:100D20000828F9D10CBD000000100240002002404C
:100D300002480068401C014908607047000000201C
:100D400010B51348006840F00100114908600846DA
:100D50004068104908400E494860084600680E493E
:100D600008400B4908600846006820F480200860AD
:100D70000846406820F4FE0048604FF41F00886079
:100D8000FFF761FF4FF000600449086010BD0000EC
:100D9000001002400000FFF8FFFFF6FE08ED00E043
:100DA00010B540F225511F4800F068F800B31D4807
:100DB00000F020F9C4B21C48B0F80004C0F30E00E3
:100DC00040F2FF3188420EDA1749B1F80014C1F33E
:100DD0000E00411C144AB2F8002461F30E021249BD
:100DE000A1F800240C5440F225510E4800F01EF8E2
:100DF00040F224410B4800F041F8012811D10A4883
:100E0000B0F8000420F4004000F500400649A1F8C5
:100E10000004044800F0EEF8C4B22146014800F096
:100E2000EEF810BD004400403400002010B5002250
:100E3000002340F66A14A14200D100BF0A12012427
:100E40009440A3B2DC43048010BD21B1828942F4F6
:100E50000052828104E082894DF6FF731A4082813C
:100E6000704702460020B1F5007F00D100BF138813
:100E70000B400BB1012000E00020704770B5024626
:100E8000002400230025002040F66A16B14200D15C
:100E900000BFC1F3421501F01F03012606FA03F358
:100EA000012D02D19689334006E0022D02D1168A27
:100EB000334001E0968A33400C12012606FA04F40E
:100EC0001688344013B10CB1012000E0002070BD41
:100ED000F0B50346002400260025002040F66A17DE
:100EE000B94200D100BF1846C1F3421401F01F06F9
:100EF000012707FA06F5012C01D10C3004E0022C81
:100F000001D1103000E014301AB107682F43076098
:100F100002E00768AF430760F0BD00002DE9F0472D
:100F200086B005460E460024A24600BFA146002713
:100F3000B08900B100BF2F462C8A4CF6FF700440E8
:100F4000F08804432C82AC894EF6F3100440B0883C
:100F500031890843718908430443AC81AC8A4FF658
:100F6000FF400440B0890443AC8201A8FFF700FEB3
:100F70001F48874202D1DDF810A001E0DDF80CA087
:100F8000A88900F4004040B10AEBCA0000EB0A1047
:100F900031684900B0FBF1F807E00AEBCA0000EB4A
:100FA0000A1031688900B0FBF1F86420B8FBF0F05A
:100FB00004012009642101FB1089A88900F4004084
:100FC00040B1322000EBC900B0FBF1F000F00700A7
:100FD000044308E0322000EB09106421B0FBF1F07B
:100FE00000F00F0004432C8106B0BDE8F08700003C
:100FF0000038014001468888C0F308007047C1F3FB
:101000000802828070470FB470B586B006460CA8FF
:10101000019073E00B9800785C281CD10B98401C61
:101020000B9000786E2809D072280FD10D21304620
:10103000FFF7E5FF0B98401C0B900BE00A213046B0
:10104000FFF7DDFF0B98401C0B9003E00B98401C52
:101050000B9000BF4BE00B980078252840D10B98EF
:10106000401C0B900078642818D0732833D1019865
:1010700010C801900BE021783046FFF7C0FF00BF99
:1010800080213046FFF7EDFE0028F9D0641C20785F
:101090000028F0D10B98401C0B9020E0019820C84C
:1010A00001900A2202A9284600F096F802AC0BE053
:1010B00021783046FFF7A3FF00BF80213046FFF7BD
:1010C000D0FE0028F9D0641C20780028F0D10B98BD
:1010D000401C0B9003E00B98401C0B9000BF06E0F7
:1010E0000B9810F8011B0B903046FFF788FF00BFEC
:1010F00080213046FFF7B5FE0028F9D00B98007824
:10110000002887D106B070BC5DF814FB00BFFEE775
:1011100000BF70476FF004004FF0E02108610A48FB
:1011200000680A49B0FBF1F00949087008460078E8
:1011300000EB4001C1EBC0104FF6FF7101EAC000A7
:1011400004490880704700000400002000127A0063
:101150002C0000202E0000200146114A12884A432C
:101160004FF0E0235A6100229A611A46126942F058
:1011700001021A6100BF4FF0E022106900F0010285
:101180001AB100F48032002AF5D04FF0E022126943
:1011900022F001024FF0E0231A6100229A617047A9
:1011A0002E00002070B504460D4600BF802109487E
:1011B000FFF757FE0028F9D0E1B20648FFF71FFFFE
:1011C00000BF40210348FFF74CFE0028F9D020461D
:1011D00070BD000000440040F0B503460D461646C1
:1011E000002729460A2E03D0002008702846F0BDAB
:1011F00033B9302001F8010B002008702846F6E7CB
:10120000002B03DA2D2001F8010B5B4242F2107231
:101210000DE093FBF2F404B937B104F1300001F8AA
:10122000010B04FB123301270A2092FBF0F2002A83
:10123000EFDC002008702846D9E7FFF76BFF4FF47A
:10124000E130FFF79BF901E0FFF768FAFCE70000E7
:1012500010B586B0044601214804FFF769FC01215E
:101260000420FFF775FC0420ADF8040003208DF87E
:10127000060018208DF8070001A91C48FFF77EFB27
:101280000820ADF8040004208DF8070001A91748D4
:10129000FFF774FB26208DF8000000208DF8010078
:1012A0008DF8020001208DF803006846FFF706FC68
:1012B00002940020ADF80C00ADF80E00ADF810005F
:1012C000ADF814000C20ADF8120002A90848FFF791
:1012D00025FE012240F225510548FFF7F9FD0121C5
:1012E0000348FFF7B2FD06B010BD00000008014042
:1012F00000440040141300080000002034000000E7
:10130000280100084813000834000020640A000087
:10131000440100080000000000A24A040000000090
:101320000000000001020304060708090000000095
:101330000102030401020304060708090204060867
:081340000000000000000000A5
:04000005080000ED02
:00000001FF
